:020000040800F2
:1000000000800020455E00081D5E00081F5E00089D
:10001000215E0008235E0008255E00080000000045
:10002000000000000000000000000000275E000843
:10003000295E0008000000002B5E00082D5E00080D
:10004000955E0008955E0008955E0008955E0008C4
:10005000955E0008955E0008955E0008955E0008B4
:10006000955E0008955E0008955E0008955E0008A4
:10007000955E0008955E0008955E0008955E000894
:10008000955E000800000000955E0008955E00087F
:10009000259900088D960008955E0008955E000879
:1000A000955E0008955E0008955E0008955E000864
:1000B000955E0008955E0008955E0008955E000854
:1000C000955E0008955E0008955E0008955E000844
:1000D000955E0008E91E00085D220008955E000894
:1000E000B5510008955E0008955E0008955E000811
:1000F000955E0008955E0008955E0008000000000F
:1001000000000000955E000800000000955E0008F9
:10011000955E000800000000955E0008955E0008EE
:10012000955E0008955E0008955E0008955E0008E3
:10013000955E00080000000000000000955E0008C9
:10014000955E0008955E00080000000000000000B9
:10015000000000000000000000000000000000009F
:10016000000000000000000000000000955E000894
:10017000955E000800000000000000000000000084
:1001800000000000955E0008000000000000000074
:10019000000000000000000000000000000000005F
:1001A0000000000000000000955E0008955E000859
:1001B000955E0008955E0008955E0008000000004E
:1001C00000000000955E0008000000000000000034
:0801D000955E0008955E000831
:1001D80010F8012B11F8013B012A28BF9A42F7D0E9
:1001E800D01A7047034613F8012B002AFBD1181ABE
:1001F8000138704781F0004102E000BF83F00043FE
:1002080030B54FEA41044FEA430594EA050F08BFA9
:1002180090EA020F1FBF54EA000C55EA020C7FEA6D
:10022800645C7FEA655C00F0E2804FEA5454D4EBEA
:100238005555B8BF6D420CDD2C4480EA020281EAB4
:10024800030382EA000083EA010180EA020281EAEC
:100258000303362D88BF30BD11F0004F4FEA01313E
:100268004FF4801C4CEA113102D0404261EB41014D
:1002780013F0004F4FEA03334CEA133302D05242D3
:1002880063EB430394EA050F00F0A780A4F101048F
:10029800D5F1200E0DDB02FA0EFC22FA05F28018C9
:1002A80041F1000103FA0EF2801843FA05F35941AF
:1002B8000EE0A5F120050EF1200E012A03FA0EFC2E
:1002C80028BF4CF0020C43FA05F3C01851EBE37158
:1002D80001F0004507D54FF0000EDCF1000C7EEB75
:1002E80000006EEB0101B1F5801F1BD3B1F5001FB3
:1002F8000CD349085FEA30004FEA3C0C04F10104D2
:100308004FEA445212F5800F80F09A80BCF1004FFA
:1003180008BF5FEA500C50F1000041EB045141EA7C
:10032800050130BD5FEA4C0C404141EB0101013C45
:1003380028BFB1F5801FE9D291F0000F04BF014634
:100348000020B1FA81F308BF2033A3F10B03B3F106
:1003580020020CDA0C3208DD02F1140CC2F10C0296
:1003680001FA0CF021FA02F10CE002F11402D8BFF4
:10037800C2F1200C01FA02F120FA0CFCDCBF41EAC0
:100388000C019040E41AA2BF01EB0451294330BD8F
:100398006FEA04041F3C1CDA0C340EDC04F114046C
:1003A800C4F1200220FA04F001FA02F340EA030043
:1003B80021FA04F345EA030130BDC4F10C04C4F189
:1003C800200220FA02F001FA04F340EA0300294669
:1003D80030BD21FA04F0294630BD94F0000F83F4B3
:1003E800801306BF81F480110134013D4EE77FEA96
:1003F800645C18BF7FEA655C29D094EA050F08BFE2
:1004080090EA020F05D054EA000C04BF19461046C2
:1004180030BD91EA030F1EBF0021002030BD5FEA06
:10042800545C05D14000494128BF41F0004130BD2E
:1004380014F580043CBF01F5801130BD01F0004582
:1004480045F0FE4141F470014FF0000030BD7FEAF5
:10045800645C1ABF194610467FEA655C1CBF0B46F0
:10046800024650EA013406BF52EA033591EA030F07
:1004780041F4002130BD00BF90F0000F04BF0021FF
:10048800704730B54FF4806404F132044FF0000532
:100498004FF0000150E700BF90F0000F04BF0021AB
:1004A800704730B54FF4806404F1320410F0004511
:1004B80048BF40424FF000013EE700BF42004FEA0C
:1004C800E2014FEA31014FEA02701FBF12F07F4389
:1004D80093F07F4F81F06051704732F07F4208BF40
:1004E800704793F07F4F04BF41F40021704730B547
:1004F8004FF4607401F0004521F000411CE700BF93
:1005080050EA010208BF704730B54FF000050AE015
:1005180050EA010208BF704730B511F0004502D516
:10052800404261EB41014FF4806404F132045FEA18
:10053800915C3FF4D8AE4FF003025FEADC0C18BFC1
:1005480003325FEADC0C18BF033202EBDC02C2F1B3
:10055800200300FA03FC20FA02F001FA03FE40EA45
:100568000E0021FA02F11444BDE600BF70B54FF049
:10057800FF0C4CF4E06C1CEA11541DBF1CEA135527
:1005880094EA0C0F95EA0C0F00F0DEF82C4481EA8F
:10059800030621EA4C5123EA4C5350EA013518BFAF
:1005A80052EA033541F4801143F4801338D0A0FB9C
:1005B80002CE4FF00005E1FB02E506F00042E0FB49
:1005C80003E54FF00006E1FB03569CF0000F18BF4F
:1005D8004EF0010EA4F1FF04B6F5007F64F54074F7
:1005E80004D25FEA4E0E6D4146EB060642EAC6218A
:1005F80041EA55514FEAC52040EA5E504FEACE2EF7
:10060800B4F1FD0C88BFBCF5E06F1ED8BEF1004FF9
:1006180008BF5FEA500E50F1000041EB045170BD75
:1006280006F0004646EA010140EA020081EA0301B9
:10063800B4EB5C04C2BFD4EB0C0541EA045170BDB5
:1006480041F480114FF0000E013C00F3AB8014F12F
:10065800360FDEBF002001F0004170BDC4F1000478
:10066800203C35DA0C341BDC04F11404C4F12005F9
:1006780000FA05F320FA04F001FA05F240EA020054
:1006880001F0004221F0004110EBD37021FA04F68A
:1006980042EB06015EEA430E08BF20EAD37070BD44
:1006A800C4F10C04C4F1200500FA04F320FA05F0A3
:1006B80001FA04F240EA020001F0004110EBD370A5
:1006C80041F100015EEA430E08BF20EAD37070BD15
:1006D800C4F1200500FA05F24EEA020E20FA04F3EE
:1006E80001FA05F243EA020321FA04F001F000419D
:1006F80021FA04F220EA020000EBD3705EEA430E0E
:1007080008BF20EAD37070BD94F0000F0FD101F03C
:100718000046400041EB010111F4801F08BF013C75
:10072800F7D041EA060195F0000F18BF704703F0B3
:100738000046520043EB030313F4801F08BF013D3A
:10074800F7D043EA0603704794EA0C0F0CEA1355F6
:1007580018BF95EA0C0F0CD050EA410618BF52EAB0
:100768004306D1D181EA030101F000414FF00000B6
:1007780070BD50EA410606BF1046194652EA4306C4
:1007880019D094EA0C0F02D150EA013613D195EA38
:100798000C0F05D152EA03361CBF104619460AD180
:1007A80081EA030101F0004141F0FE4141F470018A
:1007B8004FF0000070BD41F0FE4141F4780170BD7A
:1007C80070B54FF0FF0C4CF4E06C1CEA11541DBFDF
:1007D8001CEA135594EA0C0F95EA0C0F00F0A7F8E1
:1007E800A4EB050481EA030E52EA03354FEA01310E
:1007F80000F088804FEA03334FF0805545EA131321
:1008080043EA12634FEA022245EA111545EA1065E8
:100818004FEA00260EF000419D4208BF964244F17F
:10082800FD0404F5407402D25B084FEA3202B61A9E
:1008380065EB03055B084FEA32024FF480104FF472
:10084800002CB6EB020E75EB030E22BFB61A7546E6
:1008580040EA0C005B084FEA3202B6EB020E75EB79
:10086800030E22BFB61A754640EA5C005B084FEAE1
:100878003202B6EB020E75EB030E22BFB61A7546AE
:1008880040EA9C005B084FEA3202B6EB020E75EBB9
:10089800030E22BFB61A754640EADC0055EA060E7A
:1008A80018D04FEA051545EA16754FEA06164FEABD
:1008B800C30343EA52734FEAC2025FEA1C1CC0D169
:1008C80011F4801F0BD141EA00014FF000004FF0F6
:1008D800004CB6E711F4801F04BF01430020B4F1B7
:1008E800FD0C88BFBCF5E06F3FF6AFAEB5EB030C6F
:1008F80004BFB6EB020C5FEA500C50F1000041EB6C
:10090800045170BD0EF0004E4EEA113114EB5C0438
:10091800C2BFD4EB0C0541EA045170BD41F480110B
:100928004FF0000E013C90E645EA060E8DE60CEA13
:10093800135594EA0C0F08BF95EA0C0F3FF43BAF30
:1009480094EA0C0F0AD150EA01347FF434AF95EAE7
:100958000C0F7FF425AF104619462CE795EA0C0FCB
:1009680006D152EA03353FF4FDAE1046194622E798
:1009780050EA410618BF52EA43067FF4C5AE50EA72
:1009880041047FF40DAF52EA43057FF4EBAE12E762
:100998004A0011D212F5001211D20DD56FF47873F6
:1009A800B3EB62520ED44FEAC12343F0004343EA4B
:1009B800505323FA02F070474FF00000704750EA96
:1009C800013002D14FF0FF3070474FF00000704700
:1009D8000348044B834202D0034B03B118477047C6
:1009E8007801002078010020000000000548064B2F
:1009F8001B1AD90F01EBA301491002D0034B03B115
:100A08001847704778010020780100200000000096
:100A180010B5064C237843B9FFF7DAFF044B13B13E
:100A28000448AFF300800123237010BD7801002033
:100A38000000000014AA000808B5054B1BB10549C1
:100A48000548AFF30080BDE80840FFF7CFBF00BFFF
:100A5800000000007C01002014AA000838B54FF0FF
:100A68007F33C0F8A03004464FF6FF737F2200257D
:100A7800A0F8A43080F8A62080F8A950A0F8AA30E1
:100A8800AC3000F009FB84F8B85038BD37B51546CE
:100A980004461146019300F025FB294604F1140091
:100AA80000F020FB294604F1280000F01BFB294632
:100AB80004F13C0000F016FB294604F1500000F058
:100AC80011FB294604F1640000F00CFB294604F1EF
:100AD800780000F007FB294604F18C0000F002FBC7
:100AE80004F1AC00019A4FF4FA734FF4FA6100F084
:100AF800BEFA204603B0BDE83040FFF7AFBF90F81C
:100B0800A43013B990F9A000704790F9A10070477C
:100B180010B5044604F060FB38B104F1500000F051
:100B2800E8FA012838BF0120C0B210BD7F2807D0DD
:100B3800002807DA10F1800F06D04042C0B2704793
:100B480000207047012070477F207047392808D857
:100B580022280ED9094B2338C0B2C34003F0010044
:100B680070475F2807D0613819288CBF0020012002
:100B78007047002070470120704700BF01EC7F00DC
:100B8800F8B50246451E461D00245F2715F8010FDB
:100B9800FF2804BF0134E4B2FFF7D8FF00B92F7073
:100BA800AE42F3D1062C04D119B10B6813608B88BF
:100BB800938000239371F8BD2DE9F843DFF8349052
:100BC800471E441D012500264FF0280817F8011F6D
:100BD800084809F008FE034610B1A0EB0903DBB290
:100BE800A3FB05329E19A742A5FB0853EED1304658
:100BF800BDE8F8833CAA000810B54179A1F130009E
:100C0800C3B2092B07D80523B0FBF3F303EB830327
:100C1800C01AC0B210BD044C204609F0E4FD0028FB
:100C2800F1D0001BC0B2EEE73CAA000870B504463C
:100C3800FFF7D8FA82B20023551E98B2A84214FAD8
:100C480083F104DA265C302E03F10103F5D0121A81
:100C580001322046BDE8704009F02ABE2DE9F04F68
:100C68000D4699B0164600211A461F46804609F0DF
:100C780039FE00212A2201A8009109F033FEDFF88D
:100C8800CC90DFF8CCA0DFF8CCB005EB4606AE423E
:100C980011D16846FFF7A6FA30B100F160030DEBF9
:100CA8000300002300F8613C6946404609F084FDD2
:100CB80019B0BDE8F08F35F9020B47F6FF7398427B
:100CC800E7D0002812DC59460CA809F075FD6846E3
:100CD800FFF788FA04460CA8FFF784FA20448742F5
:100CE800D5D30CA9684609F06FFDD0E7B0F57A7F37
:100CF8000BDA0CA980B209F0CEF80CA8FFF796FF22
:100D080051460CA809F060FDE1E764230CA93230D4
:100D1800B0FBF3F080B209F0BEF80CA8FFF786FF2D
:100D28000CA8FFF75FFA00F15F036B4400F1600164
:100D38000DEB010013F8302C00F8302C2E2203F8AC
:100D4800302C002300F82F3C4946DAE736AA000881
:100D580031AA00082CAA0008F0B589B06D46002415
:100D68002F468E1CE1B28A4204D83946FFF776FF37
:100D780009B0F0BD36F8241025F8021B0134F1E75C
:100D88002DE9F04142F2107388B0B1FBF3F603FB92
:100D980016141F49DFF87C80054609F00DFD6946E9
:100DA800F0B209F055F86846FFF740FF6946284653
:100DB80009F00AFD4146284609F006FD6427694600
:100DC800B4FBF7F6F0B209F043F86846FFF72EFFD8
:100DD8006946284609F0F8FC07FB164441462846B0
:100DE80009F0F2FC6946E0B209F032F89DF80130EA
:100DF8008DF800309DF802308DF8013069460023E7
:100E080028468DF8023009F0DFFC08B0BDE8F08113
:100E18002FB600083AAA000870B50E46002105460C
:100E2800144609F05FFD00239AB2944200D870BDC1
:100E3800F25C002AFBD0EA540133F5E770B50E46A0
:100E4800144600210132054609F04CFD00239AB2F0
:100E5800944200D870BDF25C002AFBD0EA540133FA
:100E6800F5E730B50024A3B2934201D3012005E091
:100E7800055D0B5D1DB9B3FA83F0400930BD1BB1A8
:100E88009D4204F10104EED00020F7E7026804490E
:100E9800044B01FB023323F000430360180C704736
:100EA800FD430300C39E2600F0B5002597B00160FE
:100EB8008580044656222946684609F013FD012616
:100EC800E27DAA4209D80023802104F1B800A37565
:100ED80017B0BDE8F04009F005BD2046FFF7D6FF82
:100EE800E7797B1B002190FBF3F202FB1300C0B2F1
:100EF800EC460A46CBB29F4223D800230022277B28
:100F08001146D0B2874227D80029D9D1A279033A0D
:100F1800012A04EB050105D925B191F9172012BB67
:100F2800012BCDD90B76A26852F82310583305F15E
:100F38000E026B44013544F8221003F8586CEDB2E8
:100F4800BEE71CF801EBBEF1000F03D18242D5D0F9
:100F58000132D2B20131CDE72069805C013298427A
:100F680008BF0121CDE7501E8342DBDB01329342EB
:100F7800D8DCA5E72DE9F047154696B0013D01609C
:100F8800027104464371EDB256220021684609F009
:100F9800A9FC0027022D84BF4FF0010900253E4619
:100FA8004FF0010A94F807809CBF4FF00309B8FB83
:100FB800F9F8E27DB24209D80023802104F1B80093
:100FC800A37516B0BDE8F04709F08CBC2046FFF7C2
:100FD8005DFFA8EB0603002190FBF3F202FB130070
:100FE800C0B2EC460A46CBB2434506D21CF801EB28
:100FF800BEF1000F2AD1824226D1434528BF43467D
:1010080003FB0951002094F80CE001F0FF0184462D
:10101800C2B296451CD8BCF1000FCAD116B1FFB9AF
:10102800012BC6D9A2191F461176A26852F82110C1
:1010380006F10E02013644F8221003F158026A4400
:10104800F6B202F858ACB4E70132D2B20131CAE7BD
:101058002269125C01308A4208BF4FF0010CD7E7C1
:101068007A1E9342DEDB7A1C9342DBDCA1E707EEB3
:10107800902A0A44F8EE676A07EE902AF8EE677A33
:10108800436086EEA77A07EE903AF8EEE77A80EDAD
:10109800007AC0ED027A7047D0ED017AF8EEE77A6F
:1010A800C0ED027A7047D0E901236421D31AC360E6
:1010B80082604B43418AB3FBF1F303747047D0E974
:1010C8000123D31AC0E90223704743682BB1C268D1
:1010D80064214A43B2FBF3F2D3B203740023C36022
:1010E800436070470023C0E90233418243600374C0
:1010F8007047007C7047C068704700230380837086
:101108000372704703781BB10022027018467047BB
:10111800437813B100224270F8E7837813B10022B4
:101128008270F3E7037A002BF0D000220272EDE719
:101138008170704781704260704700000288044BDC
:101148005140C9B233F8113083EA12230380704743
:101158007CC1000810B4B0F800C0094C0A4411F86A
:10116800013B83EA0C03DBB2914234F8133083EA83
:101178001C2CA0F800C0F2D15DF8044B704700BFEA
:101188007CC1000837B54FF6FF730446ADF806304A
:101198004518AC4203D1BDF8060003B030BD14F8C1
:1011A800011B0DF10600FFF7C9FFF2E77047704712
:1011B8007047002070477047002070470020704734
:1011C800704700207047002070470000054BDA6C1C
:1011D8000243DA64DB6C82B003400193019B02B0E6
:1011E800704700BF00100240054B9A6D02439A6594
:1011F8009B6D82B003400193019B02B0704700BF12
:1012080000100240054B1A6E02431A661B6E82B02C
:1012180003400193019B02B0704700BF00100240D9
:1012280050E8003F23F0200340E80032002AF7D1BD
:10123800704750E8003F23F0800340E80032002A5E
:10124800F7D170477047012070470000044B188899
:10125800044B1B8880B29BB2C01A18BF012070478C
:101268002E1600202C16002030B54FF6FF730024F0
:1012780041F22105025D83EA0223082213F4004F9C
:1012880002F1FF324FEA430318BF6B4012F0FF022E
:101298009BB2F3D10134A2B29142EBD8184630BDCB
:1012A800084A094B116810B5084C04FB0133136058
:1012B800074A1268C3F3080310441844054B186022
:1012C80010BD00BF680400205FF36E3C0D66190076
:1012D800341800206C040020054A137810708342EB
:1012E8001FBF04490B6801330B60034B187070472C
:1012F8000A050020A8070020A6070020064B0122A7
:101308001A70064B064A1B684FF4487003F5FA73C7
:101318001360FFF7C5BF00BF480400203418002041
:101328005C04002008B508F069FA054A0023138018
:10133800044A1380044A1380044A138008BD00BF7E
:101348002410002026100020281400202A14002031
:1013580008F07CBA38B5084B01700025DB7843707B
:101368000446457185710548FFF7C9FBE571A07012
:101378002572E570257138BD04050020BC060020E3
:10138800112910B5144601D8002010BD134600F1EC
:10139800100250F8041B43F8041B9042F9D102884C
:1013A8001A802268054B9A42EED110212046FFF799
:1013B8005BFF238A1B1A58425841E6E750414952BD
:1013C80008B508F0D5F948B9054B1888054B1B88AE
:1013D80080B29BB2C01A18BF012008BD0120FCE7EB
:1013E8002610002024100020084B5B6A4FF0402292
:1013F80002F5806353E8003F43F0200302F5806064
:1014080040E800310029F3D1704700BF0044004094
:101418000A4A0B4B12680B49A3FB02323220920C8A
:1014280000FB02F2084B486802F5FA72A3FB02328D
:1014380092094B681B1A9A42FBD87047100000208B
:1014480083DE1B43001000E0D34D621008B5FFF7A0
:10145800DFFF4FF0904310229A6108BD4FF0904390
:1014680010229A62FFF7D4BF014B186A704700BF79
:10147800F001002007B503688DF807101B690122E9
:101488000DF10701984703B05DF804FB074B084AC4
:101498005B6A02F5006353E8003F43F0200302F55E
:1014A800006040E800310029F3D17047003801405E
:1014B8000030014013B5044608460191FEF792FE3C
:1014C800236801991B6982B2204602B0BDE810402A
:1014D800184708B5FFF7EEFF08BD0000B0F1904FC0
:1014E80008B5014607D10120FFF770FE114B99425C
:1014F8000BD1202014E0104B98420BD003F58063E9
:10150800984209D10420FFF761FE0C4B994210D193
:10151800402005E00220E7E7094B984204D1082063
:10152800BDE80840FFF752BE064B9842DED11020B6
:10153800F6E708BD001400480004004800180048F9
:10154800000C00480010004808B5224B984201469C
:101558000BD14FF40060FFF755FE1F4B99420DD198
:10156800BDE808402020FFF73FBEB0F1804F0ED005
:101578001A4B98420FD10220FFF736FE184B9942BA
:101588000FD14FF40050BDE80840FFF73BBE0120E3
:10159800FFF72AFEE1E7134B984208D10420FFF732
:1015A80023FE114B99420CD14FF48030EBE70F4BDF
:1015B8009842D2D11020FFF717FE0D4B994206D062
:1015C80008BD0C4B9942F8D14FF40030DBE74FF4DB
:1015D8008020D8E7002C014000140040000400409F
:1015E8000034014000080040004001400010004065
:1015F80000480140004401402DE9F04387B00E4601
:10160800054614460021142201A89DF838809DF84B
:101618003C901F4609F066F900960B2C07D8DFE8C6
:1016280004F007070A121414141616161A1CFEE7FB
:101638000323019301E002230493032F11D8DFE869
:1016480007F0111321110123F6E70123F1E7012324
:1016580001930393F1E70223EBE7022301930123AC
:10166800F7E7FEE702230293B8F1100F0CD8DFE882
:1016780008F02D2D0C11131517191B1D1F212325DB
:1016880027292B000123EEE7FEE701230593022318
:1016980001931EE00223F9E70323F7E70423F5E7A4
:1016A8000523F3E70623F1E70723EFE70823EDE730
:1016B8000923EBE70A23E9E70B23E7E70C23E5E730
:1016C8000D23E3E70E23E1E70F23DFE7B8F1000F6F
:1016D800DDD1B9F1000F02D02846FFF7FFFE053C27
:1016E800042C05D8DFE804F0030B04030B00AE62FA
:1016F8006946284606F054F907B0BDE8F083AE61A4
:10170800F6E713B54FF0010C0024CDE9004CFFF7C4
:1017180073FF02B010BD000070B586B000231646F6
:1017280004460D46ADF80630FFF70EFF042E04D828
:10173800DFE806F0303404384100FEE71F4B204A4A
:101748001B68B3FBF2F39BB20022013B01A92046C0
:10175800ADF80430CDE902250492059206F0EAFAC4
:10176800236823F080032360A36823F4A03323F0C5
:101778000703A360636823F0007323F070036360BA
:10178800636823F470036360A36823F08003A36095
:1017980006B070BD094B0B4A1B68D2E7074B0A4AD3
:1017A8001B68CEE7054B074A1B68B3FBF2F303EB54
:1017B80083035B00C7E70123C6E700BF10000020D2
:1017C80080A8120140420F008096980010B5044688
:1017D800FFF7A2FF236843F00103236010BD002236
:1017E8004FF0FF31FFF7F2BF034A034603CA186000
:1017F80059601068986070479075FF1F0749084A3C
:10180800881AEFF30883521A1A44013A013B9842A6
:1018180088BF0022AA2109F065B800BF0080002017
:101828000004000010B5114C032320460622402175
:10183800FFF767FF032302224FF400414FF0904067
:10184800FFF75FFF03231A4620462021FFF759FFC1
:101858002046032305228021FFF753FF2046032358
:10186800BDE8104005220121FFF74BBF00040048E6
:10187800024B1869C0F34010704700BF00040048CD
:1018880008B5FFF7F5FF00B908BD00BFF9E700008C
:10189800024B01229A6280229A6170470004004834
:1018A800024B80229A6201229A6170470004004824
:1018B800104A53694FF4704123F4704391FAA1F12F
:1018C80053610D4B5A6822F400425A601A6822F498
:1018D80000421A60DA6822F40042DA609A6842F438
:1018E80000429A60054BD02283F828234FF4807277
:1018F8005A607047000001400004014000E100E028
:10190800044B4FF400425A611A6842F400421A60CC
:10191800704700BF000401400348002303224FF42E
:101928008071FFF7EEBE00BF00040048024B186943
:10193800C0F30020704700BF0004004808B5052226
:10194800002302214FF09040FFF7DBFE0023052221
:1019580001214FF09040FFF7D4FE4FF09043022250
:101968009A6201229A6208BD4FF090414B691A04AD
:10197800DB4302F4803203F0010313438B617047A9
:1019880008B5052200234FF480714FF09040FFF70F
:10199800B8FE4FF090434FF480729A6208BD4FF042
:1019A80090431A284FF48072CCBF9A619A627047AC
:1019B8001D2826DC1A2806DD022B18BF04231B204D
:1019C8000B7010707047172805DD022B0CBFFE2323
:1019D80000231820F4E7132805DD022B0CBFFA2397
:1019E800FC231420ECE7102805DD022B0CBFF8239C
:1019F800F9231120E4E7022B0CBF10200E20F72357
:101A0800DEE70A231E20DBE710B404460846114629
:101A18001A46A3685DF8044B5B7AFFF7C9BF00005C
:101A28000C4BD3F8FC2022F08072C3F8FC20D3F8CA
:101A3800FC2042F08072C3F8FC20A3F55D431A68CD
:101A480022F001021A601A6842F001021A600022AC
:101A58005A60704700ED00E0064A074B51681B6862
:101A680010B5064CB3FBF4F3584353685B1A834232
:101A7800FBD310BD001000E01000002040420F0012
:101A88002DE9F8431C4EDFF88490D6F800801B4FF0
:101A9800013085B23368A3EB0803AB4219D80023A1
:101AA8004FF6FF7148463C883B8008F015FDA4B20C
:101AB800204380B2E0B1124A10F00104108006D031
:101AC800104A1368013313600120BDE8F8838305C9
:101AD8000ED50D4A0D481368013313600C4B99F865
:101AE80004201A7008F039FD0A4B18800020ECE732
:101AF8003220FFF7B1FFCDE734180020440400205E
:101B0800A2070020C0070020C40700207807002093
:101B1800A4070020A00700202DE9F8431C4EDFF899
:101B28008490D6F800801B4F013085B23368A3EB50
:101B38000803AB4219D800234FF6FF7148463C888A
:101B48003B8008F0C9FCA4B2204380B2E0B1124A3D
:101B580010F00204108006D0104A13680133136095
:101B68000120BDE8F88383050ED50D4A0D4813689A
:101B7800013313600C4B99F804201A7008F0EDFC3F
:101B88000A4B18800020ECE73220FFF765FFCDE70D
:101B98003418002044040020A2070020AC070020CD
:101BA800B007002078070020A4070020A007002025
:101BB8007FB50123CDE90413002201A902A8CDE9CC
:101BC800022304F0F9FA00280CBF0420052007B00E
:101BD8005DF804FB014608B5002004F057FA002818
:101BE8000CBF0420052008BD08B5FFF7E1FF031F5F
:101BF8005842584108BD08B5FFF7ECFF031F58428B
:101C0800584108BD2DE9F3472A4B2B4D01281446AE
:101C18002A482B4A0E4617BFAA463D213C211D469D
:101C2800019106BF9A468046904604F0E9F9019969
:101C38002846FFF7D9FF30B9002404F0F3F920460D
:101C480002B0BDE8F087002E08BF4FF4FC640734EB
:101C580024F0070405F11007B1463444AAEB050A3D
:101C6800A1450BD14FF011324FF0FF332846FFF753
:101C7800C2FF003818BF01208400DEE76EB90AEB06
:101C88000703D3E90023B3F1FF3F08BFB2F1FF3FD9
:101C980006D1083709F10809E2E7D9E90023F2E794
:101CA800B84505D93846FFF7A6FF0028F1D1C3E7A4
:101CB8000324C2E700E0010800E80108FFEF01087B
:101CC800FFE7010810B504F09BF909483C21FFF72C
:101CD8008BFF58B107483D21FFF786FF003818BF32
:101CE8000120840004F09EF9204610BD0446F9E75F
:101CF80000E0010800E8010830B5084D002340F273
:101D0800EF749AB2914201D8042030BDA34203D0A7
:101D18005A5DC2540133F4E70320F6E710E00108E6
:101D280013B50A46044672B6019101460020FFF732
:101D380069FF62B60428019A05D172B601202146CE
:101D4800FFF760FF62B602B010BD000038B5124B55
:101D58001C68D3F80058B4F1113F09D1B5F1113F0F
:101D680017D0002211460120BDE83840FFF74ABFCE
:101D7800B5F1113F03D1002211461046F4E7FFF7F1
:101D8800A1FF042804D12C4001340CBF02200120FB
:101D980038BD0420FCE700BF00E00108034B1873BE
:101DA8009A68D207FCD5187B704700BF0030014005
:101DB80038B5441E8D18A94200D138BD14F8010F5A
:101DC800FFF7ECFF01F8010BF5E7084611461A4644
:101DD800FFF7EEBF38B5064D04460144A14200D1D5
:101DE80038BD2878FFF7DAFF04F8010BF6E700BFE3
:101DF8000C00002008461146FFF7ECBF10B501445F
:101E080004468C4200D110BD14F8010BFFF7C6FF41
:101E1800F7E708461146FFF7F1BF000030B58DB06F
:101E28002822002102A808F05DFD4FF48050FFF73A
:101E3800E9F91021032306224FF09040FFF761FCD7
:101E48004FF0904006240125102383610A22CDE932
:101E5800004503232021FFF7CFFBCDE900450323ED
:101E68000A2280214FF09040FFF7C6FB03231A4651
:101E7800CDE9004540214FF09040FFF7BDFB182207
:101E8800154C08924FF48272002303924FF40072AB
:101E9800CDE90533CDE909330293079207234FF4BF
:101EA800E06202A920460B93049205F009FF6368DB
:101EB80023F010036360636823F0080363602368FA
:101EC80043F040032360A3689B07FCD5237B034BA7
:101ED800FF221A700DB030BD003001400C00002008
:101EE8001C4B10B4DC69A00611D51A6891060ED5F2
:101EF80019481A495A6A038809880133C3F30A033F
:101F080089B299421FBF1649D2B2CA5403801148F8
:101F18001F232206036215D503681B0612D5114B31
:101F2800114A1988138889B29BB299420DD0138837
:101F38000133C3F30903138013880C4A9BB2D35CA3
:101F4800DBB283625DF8044B70475DF8044BFFF722
:101F580070B900BF0038014026100020241000206E
:101F6800230800202A14002028140020281000200C
:101F78000E490F4A0B8812880133C3F3090392B242
:101F88009A4211D00B4AD0540B4A0B8002F50063D9
:101F980053E8003F43F0800302F5006040E8003159
:101FA8000029F3D101207047002070472A1400202F
:101FB80028140020281000200030014038B50446BD
:101FC8004518AC4200D138BD14F8010BFFF7D0FF1B
:101FD800F7E707B508461146CDE9000207F0DFFC30
:101FE800DDE9000103B05DF804EBFFF7E7BF00008F
:101FF800054B064A1B8812889B1A98B21B0444BFDB
:1020080000F5006080B270472610002024100020E0
:1020180008B507F0BBFB0146FFF7EAFF084480B2AA
:1020280008BD00000848094A0188138889B29BB294
:102038009942F9D013880133C3F30A031380138834
:10204800034A9BB2D05C7047261000202410002061
:102058002308002008B507F08BFB18B1BDE808403D
:1020680007F0A4BBBDE80840FFF7DCBFF8B50B4F8D
:102078000E46451E00243846FFF7A2F940B13846FF
:10208800FFF7E8FF0134E4B2A64205F8010FF2D1E8
:10209800034A1368234413602046F8BD0800002053
:1020A800B807002070B588B00C46064615460021D2
:1020B8002022684608F016FC231E18BF01231B03C4
:1020C800CDE9023569460C2303480196049405932B
:1020D80005F08CFE08B070BD0038014010B5064C04
:1020E800236823F001032360FFF7DCFF236843F034
:1020F8000103236010BD00BF0038014000220846DC
:102108001146FFF7EBBF000073B5464C236823F078
:10211800010323604FF4804008250126FFF772F879
:102128004FF4007103230A224FF09040CDE9005686
:10213800FFF762FA03231A464FF480614FF090408C
:10214800CDE90056FFF758FA002211464FF46140D6
:10215800FFF7A8FF6368344A23F490436360A368D9
:1021680023F02A03A360236823F00053236002F6B8
:10217800080353E8003F23F0604302F6080040E8F4
:1021880000310029F3D102F6080353E8003F23F099
:10219800606302F6080040E800310029F3D1234BC0
:1021A800B02283F8252320225A601E48FFF741F801
:1021B8001D4A02F5006353E8003F23F0400302F58F
:1021C800006040E800310029F3D11648402303623B
:1021D800174B1980174B1980FFF722F8164B1980F7
:1021E800164B1980436823F400634360836823F027
:1021F80008038360436823F480434360836823F0C3
:1022080022038360836843F480538360036843F048
:1022180001030360C3699A02FCD5C3695B02F9D55F
:1022280002B070BD003801400030014000E100E01C
:10223800281400202A140020241000202610002032
:1022480008B5FFF761FFBDE80840FFF71FB9FFF7C2
:10225800F7BF00001C4B10B4DC69A00611D51A6842
:1022680091060ED519481A495A6A03880988013314
:10227800C3F3080389B299421FBF1649D2B2CA54A0
:10228800038011481F232206036215D503681B0625
:1022980012D5114B114A1988138889B29BB29942F9
:1022A8000DD013880133C3F30803138013880C4A35
:1022B8009BB2D35CDBB283625DF8044B70475DF878
:1022C800044BFEF7B6BF00BF004400402E160020A6
:1022D8002C1600202C140020321800203018002062
:1022E800301600200F49104A0B8812880133C3F3B7
:1022F800080392B29A4212D00C4AD0540B804FF085
:10230800402202F5806353E8003F43F0800302F562
:10231800806040E800310029F3D101207047002097
:10232800704700BF321800203018002030160020F7
:1023380038B504464518AC4200D138BD14F8010B35
:10234800FFF7D0FFF7E708461146FFF7F1BF000097
:10235800054B064A1B8810880133C3F3080380B273
:10236800181A18BF012070473218002030180020B2
:1023780008B5FFF7EDFFB0FA80F0400908BD00008E
:102388000848094A0188138889B29BB29942F9D052
:1023980013880133C3F3080313801388034A9BB2DD
:1023A800D05C70472E1600202C1600202C1400201C
:1023B800FFF7E6BF70B588B00C4606461546002103
:1023C8002022684608F08EFA231E18BF01231B033B
:1023D800CDE9023569460C23034801960494059318
:1023E80005F004FD08B070BD0044004073B5474CCB
:1023F800236823F00103082523604FF400300126E9
:10240800FEF7F2FE042103230A224FF09040CDE9A3
:102418000056FFF7F1F803231A4629464FF090407B
:10242800CDE90056FFF7E8F8002211464FF4E130F5
:10243800FFF7C0FF636823F490436360A36823F049
:102448002A03A360236823F0005323604FF040223F
:1024580002F5816353E8003F23F0604302F5816091
:1024680040E800310029F3D14FF0402202F58163A2
:1024780053E8003F23F0606302F5816040E80031D3
:102488000029F3D1224BF02283F8262340225A60F8
:102498001E48FEF7CEFE4FF0402202F5806353E857
:1024A800003F23F0400302F5806040E80031002936
:1024B800F3D1164840230362164B1980164B198036
:1024C800FEF7AEFE154B1980154B1980436823F4AF
:1024D80000634360836823F008038360436823F440
:1024E80080434360836823F022038360836843F456
:1024F80080538360036843F001030360C3699A0251
:10250800FCD5C3695B02F9D502B070BD0044004038
:1025180000E100E030180020321800202C160020BE
:102528002E16002008B5FFF761FFBDE80840FEF74A
:102538005BBFFFF7F7BF0000024B1A68024B1A6037
:10254800704700BF341800201C050020054A064BC0
:102558001968136899421DBF0133012013600020D8
:10256800704700BF1C05002034180020034A0449A6
:10257800136809680B441360704700BF34180020C3
:10258800140000200148FFF72AB900BF00040040EA
:1025980008B5FFF7F7FFBDE80840FFF7CDBF00001B
:1025A80038B51B4C94220021201D08F09BF9062306
:1025B8002380162363800F231649A38005222C232A
:1025C800A01DFEF7C9FB144B12494FF48035C4E92E
:1025D8000D354FF47023E36305222C2304F14000EA
:1025E800FEF7BAFB0223A4F86E300C4925670023D6
:1025F80004F18000C4E91E3384F8743008F0DCF874
:102608007F2384F89530052384F8963038BD00BFC1
:10261800AC03002088B9000802000100C0AA000825
:1026280070B5094E05460C46415C304608F0DBF8AB
:10263800034628B1831B0133DBB2282B28BF0023B4
:10264800F35C2B5570BD00BF7CC0000870B50C460C
:102658001146064608F0B0F844B100250521304679
:102668000135FFF7DDFFEBB29C42F7D870BD0000E3
:1026780073B5054605F11106204C214A014636017D
:102688006846FFF7E3FFB01C6946204408F094F859
:10269800264404EB0512012302217372A2F81A11D1
:1026A800142202FB054040F2011104254FF4807604
:1026B8000022A0F84A50C36480F85050A0F8523065
:1026C80080F85530A0F85660A0F85810032084F818
:1026D8003420E584A662A08584F82E3084F8303052
:1026E80084F83320C4F83A20C4F83E20C4F84220C5
:1026F800A4F84610A4F8481002B070BDF0010020FC
:102708008CAA0008F7B50546AF4CB04A05F111068A
:10271800014637016846FFF799FFB81C2744694608
:102728002044FEF72DFA7B7AA94A052B88BF02239D
:1027380004EB061088BF7B721188437A41FA03F3D1
:10274800DF070FD40223437261B14807C1F3800346
:1027580008D441FA03F7FF07D8B240F1D18104EB5E
:102768000613587204EB05112B0191F81A0105287C
:1027780002D9022081F81A01E718508897F81A112F
:1027880040FA01F1C90711D4012187F81A1168B17B
:102798008707C0F3400109D440FA01FC1CF0010F7F
:1027A800CFB200F0B281E11881F81A71E11891F8FE
:1027B8001B01032802D9002081F81B0104EB06162F
:1027C800717A012903D9042901D000219180E618E2
:1027D800908896F81B1140FA01F111F001010ED111
:1027E80086F81B1158B110F0010108D140FA01F721
:1027F800FF07CEB240F18E81234483F81B61142376
:1028080003FB054191F84A00042802D9042081F805
:102818004A0003FB054393F84B10042902D9002111
:1028280083F84B10142303FB0543918E93F84B0058
:1028380041FA00F0C00712D4012083F84B0071B1AF
:102848008807C1F340030AD441FA03F6F707D8B260
:1028580040F16581142303FB054383F84B001423DF
:1028680003FB054393F84C10032902D9012183F88F
:102878004C10142000FB0540D18E90F84C3041FAE2
:1028880003F313F0010310D180F84C3069B111F053
:1028980001030AD141FA03F6F607D8B240F14481A0
:1028A800142303FB054383F84C00142303FB05435F
:1028B80093F84E10012902D9002183F84E101420F4
:1028C80000FB0540118F90F84E3041FA03F313F0E6
:1028D800010310D180F84E3069B111F001030AD11B
:1028E80041FA03F6F707D8B240F12381142303FB1A
:1028F800054383F84E00142303FB054393F84F1058
:10290800022902D9002183F84F10142000FB05404A
:10291800518F90F84F3041FA03F313F0010310D1AF
:1029280080F84F3069B111F001030AD141FA03F67A
:10293800F607D8B240F10281142303FB054383F85C
:102948004F00142303FB054191F84D00022802D9DA
:10295800002081F84D0003FB054393F8501005292A
:1029680002D9042183F85010142303FB054191F880
:102978005200012802D9012081F8520003FB0543C7
:1029880093F85510012902D9012183F85510142311
:1029980003FB054393F85310022902D9002183F859
:1029A8005310142000FB0540918F90F8533041FAE2
:1029B80003F313F0010318D180F85330A9B111F0D3
:1029C800010312D106E000BFF00100208CAA000824
:1029D800AC03002041FA03F6F707D8B240F1B38000
:1029E800142303FB054383F85300142303FB054119
:1029F80091F856000C2802D9002081F8560003FBF4
:102A0800054393F84C10012906D193F84F10022979
:102A180004BF002183F84F10142303FB0543012151
:102A280083F8571040F20111A3F8581094F8263093
:102A3800042B02D9042384F8263094F82730042B79
:102A480002D9002384F82730B2F86E0094F82730B2
:102A580040FA03F313F0010F804B0ED1012184F8E3
:102A6800271050B18607C0F3400106D440FA01F799
:102A7800FF07CEB26CD583F8276094F82810022996
:102A880002D9002184F8281094F82910022902D9C3
:102A9800012184F82910B2F8701094F8292041FA1D
:102AA80002F212F001020CD184F8292049B111F088
:102AB800010206D141FA02F6F607D0B24CD583F8E6
:102AC800290094F82A200C2A02D9002284F82A2006
:102AD80093F832200C2A02D9002283F8322093F886
:102AE8002B20042A02D9002283F82B2000225C49DB
:102AF800104611F9014F14F1780F31DA087031E0FE
:102B08000133102B7FF425AE2CE6013110297FF418
:102B180043AE4BE6013110297FF468AE6FE601330E
:102B2800102B7FF491AE9AE60133102B7FF4B2AEEE
:102B3800BBE60133102B7FF4D3AEDCE60133102B58
:102B48007FF4F4AEFDE60133102B7FF443AF4CE77E
:102B5800013110298AD190E70132102AAAD1B0E7B1
:102B6800782CCBDC0132D2B20C2AC2D13D490022EA
:102B7800012011F8014F0132022CD2B288BF08702F
:102B8800042AF6D193F83420012A02D9002283F8C6
:102B98003420354AB2F8721093F8342041FA02F220
:102BA80012F001020CD183F8342049B111F001026E
:102BB80006D141FA02F4E407D0B211D583F8340003
:102BC80093F82C20052A02D9032283F82C2093F8A5
:102BD8002D20032A08D80AD1002283F8342006E0E1
:102BE8000132102AE5D1EBE7002283F82D2093F873
:102BF8002E20022A02D9012283F82E2093F83020B1
:102C0800022A02D9012283F8302093F833200C2AB3
:102C180002D9002283F83320142101FB0531FF2259
:102C280003EB05154FF0FF3081F8512081F854204F
:102C380083F82F2083F831204FF6FF72C5F81C0166
:102C4800A5F820019A84A1F85A20A1F85C2083F8FD
:102C58003520DA861A8703B0F0BD00BFF0010020E6
:102C68002902002035020020AC03002030B50528D9
:102C780004D8DFE800F01E0423191E23FEE72025F0
:102C88001F2400220F21104B98700338012894BF8D
:102C9800002001201A7119771A74A3F84850A3F874
:102CA8004A409873987630BD09256F240022072181
:102CB800E9E71425322400220A21E4E73525132404
:102CC80001221921DFE700BF940100202DE9F0431C
:102CD80000F111067C4F7D4C360106F10209B9441A
:102CE80085B005464846FDF767FF3E448046039099
:102CF800042103A8FEF746FA737AE0832E0107EB56
:102D08000515C4F80880C4F8148095F81A01637092
:102D18004FF0010884F85180A4F85280A4F8548038
:102D2800FFF7A4FF97F82620694B13F92230237385
:102D380023766378052B09D8DFE803F00306565895
:102D48005A5C0023637301E084F80D80614B617B5A
:102D58001B88617603F00102980748BF42F002021F
:102D6800A2855D0748BFA28D84F8281044BF42F0B1
:102D78000402A285180742BFA28D42F01002A28564
:102D8800DA0642BFA28D42F02002A2859B0642BF0E
:102D9800A38D43F00803A385002384F82A3021B9C2
:102DA8004846FDF729FF84F82A003E4496F81B217F
:102DB80084F829206AB1E18B02EB021303EB0323A9
:102DC8000B44E383A3684FF0113101FB0233A36086
:102DD800636194F82850E38B6362052D0CD8DFE813
:102DE80005F00C51531547490223ABE70423A9E723
:102DF8000523A7E70323A5E7FEE7A378032B03D85A
:102E0800DFE803F003464403FEE7182507EE905A6F
:102E1800314E84F82050F8EEE77A16E90F00B7EE45
:102E2800087A67EE877A86E80F00FCEEE77A40F2C8
:102E3800E243CDED017A6D08A4F84C309DF80430DA
:102E4800B4F84820A4F84E30052D4FF47A73B3FB3C
:102E5800F2F3A4F8403097F82C3038BF052584F8F1
:102E68005050052B24D8DFE803F0152C2023262901
:102E78000225CBE7A378022B08D0052B06D0012B1F
:102E880006D0FEE71925C1E70625BFE70C25BDE7F3
:102E98001225BBE74FF4165363640023A4F8563099
:102EA80084F8583005B0BDE8F0834FF41643F3E7D3
:102EB8004FF46143F0E74FF4E133EDE74FF461334A
:102EC800EAE74FF49643E7E7F00100209401002079
:102ED80088B90008AC030020C401002002484FF460
:102EE800DE72FF2107F0FEBCF001002002484FF41B
:102EF800DE71FEF715BF00BFF00100202DE9F0419B
:102F0800DFF86080134C98F8007007F1110636015D
:102F18000146B01C0622204407F09CFC04EB071372
:102F28003444012200256272022283F81851A3F862
:102F38001A213846FFF7E6FB98F80000FFF7C6FEAF
:102F4800FFF7D4FF044B1D70044B1D70044B1D701C
:102F5800BDE8F081F001002046040020A50700200C
:102F6800600400209401002002484FF4DE71FEF74F
:102F7800C3BE00BFF001002008B5FFF7F5FF034B03
:102F88001878BDE80840FFF7BDBB00BF94010020DA
:102F980070B5FFF7A3FFFEF7D9FE04280CD0FFF7A2
:102FA8009DFFFEF7D3FE042803D1FFF7DDFF0428B9
:102FB80006D0FFF793FF03E0FFF7D6FF0428EED112
:102FC8002D492E482D4C102207F032FC38B12C49DF
:102FD8001022204607F02CFC08B1FFF77FFFFEF710
:102FE80043FA284EB04201D0FFF778FFA38AB3F521
:102FF800215F2ED008D30025E8B20135FFF738FB52
:103008000A2DF9D10023E3774FF42153A382012538
:1030180022691949194842F643039A424FF01002AF
:103028001CBF2361012507F003FC50B11249134866
:103038001022FDF7F1FE144914480822FDF7ECFEB2
:103048000125FEF711FAB04205D02662FFF74EFFC0
:1030580003E00025DCE7002DF8D10023E3770C4CD2
:103068002370FFF79DFA2078FFF74CFB2078BDE826
:103078007040FFF72BBE00BF93AA0008F0010020A4
:10308800A4AA0008D80DAC49B5AA0008A2030020DC
:10309800940100200129F7B5054600D9FEE70B4E3B
:1030A80006EB01131C460F016278F15D03619B7802
:1030B80007F000F9E3790193A37900932279637902
:1030C800E178284607F01DF903B0F0BD9CC300085D
:1030D80038B5836804466BB1024652F8183BDD697F
:1030E80000F11903A847217E20460222BDE8384096
:1030F80007F069B938BD00002DE9F0418160897A8F
:1031080088B0044601B1012107F0ADF8204607F068
:103118004AFA204607F015FA237BFF2B2CD04E4B9A
:1031280018681B7906908DF81C3006AE052516F830
:10313800018B204607F005FA41F2883241462046C5
:1031480007F018FA0121204607F076F8204607F024
:103158006AF8074607F07007204607F0FEF9302F97
:1031680014D1830612D484F80C800125204607F078
:10317800E8F90DB9FF232373A3685B7A013B042B9D
:1031880009D8DFE803F0094343464600013D15F03E
:10319800FF05CCD1EAE7FEE7E922E121204607F066
:1031A80027FA0121204607F0A9F99621204607F0C1
:1031B800F3F93821204607F005FA204607F00AFA05
:1031C800A368204693F90810FFF782FFA3689D7A49
:1031D80015B319782046FFF75DFF002211462046F7
:1031E80007F05BF80023009340F2032220464FF6D5
:1031F800FF7107F0B5F820464FF6FF7107F0D7F8D2
:10320800204608B0BDE8F04107F088B9DB22D72195
:10321800C4E76F226B21C1E7104B1149DE8B114BBC
:1032280063614CF250330093204619230B2207F0B8
:10323800EFF90123CDE903335B23CDE901531023D3
:10324800194620460095042207F020FA3146204608
:1032580007F040FAC1E700BFBBAA000894010020AC
:10326800A08601007CC3000830B585B004460D4631
:1032780001920DF10F010DF10E0207F0FDF8019B0F
:103288009DF80E102A46204606F0A7FF05B030BD6F
:10329800836873B50D46144623B981220A702370DA
:1032A80002B070BD9E7A0DF10601B6B107F0CEF8F6
:1032B80094F90030002B04DABDF806201344ADF869
:1032C8000630BDF90630002B0BDB4FF6FF73ADF867
:1032D8000630BDF806302B70E2E707F00CFA2670CE
:1032E800EFE77F33F5DA4FF68173F0E7816838B599
:1032F8000446E9B10369ABB943699BB9024691F940
:10330800081052F8183BDD6900F11903A847A368B3
:103318009A7A52B11A78012A00D9FEE7054B03EBD5
:103328000213236194F9190038BD034B6361F9E76F
:103338000846F9E79CC300087CC3000870B5164628
:1033480004461D46FEF7A4FA33460A46002106F055
:103358001DFF20464FF6FF7107F029F82046A90106
:1033680007F03EF8BDE870407D20FEF775BB38B524
:1033780004460D464FF6FF71FEF792FA07F017F86C
:103388002046A90107F047F8BDE838407D20FEF740
:1033980063BB00002DE9F3419DF824701646402FC9
:1033A80088464FF05B024FF0000104461D4628BFD7
:1033B800402707F097FA904BDB8B23803278A3786D
:1033C80062F30203A3707378DB0003F0080343EA97
:1033D8000811A37803F007031943A1707279E37801
:1033E80062F30003E370B279637962F38613637161
:1033F80096F90200FDF79AFBE37860F34703E37060
:10340800F279237962F300032371327A62F3460377
:1034180023713279DBB202F0010203F07F0343EA41
:10342800C213237132796379C2F3450223F03F0353
:1034380013436371A37967F34703A3712B78AA78C1
:10344800E3716B7802F01F0203F0070343EAC2033B
:1034580023726A88637AC2F3451223F03F03134349
:1034680063722A79DBB202F0030203F03F0343EAF6
:1034780082136372AB88C3F38703A3726A79E37A12
:10348800C2F3800223F001031343E372AA79DBB28B
:1034980002F07F0203F0010343EA4203E372EA8881
:1034A800237BC2F3C31223F00F03134323732B7A36
:1034B800AA7AE3736B7A02F01F0203F0070343EA68
:1034C800C20323746A89637CC2F3451223F03F0365
:1034D800134363742A7BDBB202F0030203F03F0359
:1034E80043EA82136374AB89C3F38703A3746A7BCB
:1034F800E37CC2F3800223F001031343E374AA7B45
:10350800DBB202F07F0203F0010343EA4203E374F3
:10351800EA89237DC2F3C31223F00F0313432375F3
:103528002B8ADB0863756B8ADB08A375AB8ADB081B
:10353800E375EB8ADB0823762B8BB3F5C06F4ED28D
:10354800B3F5007F94BF00230123227B63F30512A8
:1035580022736B8BB3F5C06F43D2B3F5007F94BF72
:1035680000230123227B63F387122273AB8BB3F50D
:10357800C06F38D2B3F5007F94BF00230123227DAA
:1035880063F305122275EB8BB3F5C06F2DD2B3F53B
:10359800007F94BF00230123227D63F38712089BD9
:1035A80022751F4404F11802BB4220D14FF6FF7365
:1035B80021460DF106000D22ADF80630FDF7CAFDD3
:1035C8002146BDF8063021F80D3F4C22FDF7C2FD1B
:1035D800BDF80630A4F8593002B0BDE8F0810223E6
:1035E800B3E70223BEE70223C9E70223D4E713F8AF
:1035F800011B02F8011FD7E79401002013B59DF8BD
:103608001040CDE9003413460A460021FFF7C2FEF8
:1036180002B010BD13B5194B0288DB8B9A420446E1
:1036280027D1837813F0D00F25D18379812B22D825
:103638004FF6FF730D2201460DF10600ADF8063076
:10364800FDF788FDB4F80D20BDF806309A420ED17A
:103658004C2204F10D01FDF77DFDB4F85900BDF8C9
:103668000630C01A18BF0120800002B010BD032028
:10367800FBE70120F9E70220F7E700BF94010020EB
:103688007FB51B4B0C46002206461A481A80FFF7E6
:103698006EFE2046FEF740FA044618B9002420467C
:1036A80004B070BD144D13485B222946FFF7DCFDBA
:1036B8002846FFF7AFFF0028F0D1AB79132BEDD9DF
:1036C800D5F81900D5F81D10B5F8212001AB03C3B2
:1036D8001A800A4B019A9A42E0D1082101A8FDF705
:1036E800C3FDBDF80C508542D8D1029B3360D6E7A4
:1036F8004404002078070020C807002053524C4D8E
:103708002DE9F04F3B4B3C4DD3F800803B4A2B68EA
:103718003B4E2F68DFF80CA1DFF80C91DFF80CB1F5
:10372800534383EA08038BB05E4007442B68DB1BD6
:10373800002B4FF000000CDA0390082103A8FFF7D4
:103748009FFF044640B1039B4345EFD02CBF0120A7
:1037580000200BB0BDE8F08F0821ADF8240007A8C1
:10376800CDE907A8FDF780FD99F80030ADF82400F1
:10377800CDE904445A1C8DF81030224B2248DB78DE
:103788008DF8184089F800208DF81130FDF7B7F949
:103798000A231E4A8DF8120000931D4807AB04A99E
:1037A800FFF72CFF1B4B1A491C801B4C1B48237F1F
:1037B8005B221433FFF7C2FD207F1630FEF760F955
:1037C800174B03FB06B606F00F042B6802341C44A3
:1037D8002B681B1B002BA9DA2B68DB1B002BA5DA37
:1037E800042103A8FFF74CFF0028F1D0039B4345B1
:1037F800ACD1EDE70C05002034180020B179379ED4
:10380800B979379E04050020BC0600203A0600203E
:10381800C8070020440400209401002078070020F5
:103828000D66190053524C4D100500205FF36E3C95
:103838002DE9F3419DF820601546522E88464FF039
:103848005B024FF0000104461F4628BF522607F0CE
:1038580049F82D4BDB8B23802A78A37862F3020387
:10386800A3706A78D20002F00802DBB242EA0811BB
:1038780003F007031943A1706A79E37862F3000340
:10388800E370AA79637962F38613637195F902008C
:10389800FDF74CF9E37860F34703E370EA7823799E
:1038A80062F3060323712A79DBB202F0010203F006
:1038B8007F0343EAC21323712A796379C2F345026D
:1038C80023F03F0313436371A379224666F347034A
:1038D80002F8063F3E443B46B34210D14FF6FF7311
:1038E800592221460DF10600ADF80630FDF732FCED
:1038F800BDF80630A4F8593002B0BDE8F08113F8DD
:10390800011B02F8011FE7E79401002007B50093A7
:1039180013460A460121FFF78BFF03B05DF804FB4D
:1039280070B58EB00546FFF775FE044600285BD1DA
:103938000146122204A806F0D5FFA97905F119005D
:1039480004AA4908FDF71CFD0546002849D09DF842
:103958001460012E48D1254ADDF8163012689342CA
:1039680042D9234A0992CDF82A300222DDF81A30CA
:103978008DF82820CDF82E309DF81520BDF81E3082
:10398800ADF83440102109A88DF82920ADF832305F
:10399800FDF76AFC174BADF8340019788DF80C4028
:1039A8004A1C01A81A70CDE90144FDF7D3FC12485E
:1039B800122309AA01A9FFF7A9FF104B0E491C8081
:1039C8000F4C1048237F5B221433FFF7B7FC207F8E
:1039D8001630FEF755F80DF11A00FFF78FFA0A4B6B
:1039E8001E7028460EB070BD0025FAE70C050020B1
:1039F800504149521005002061060020440400206F
:103A080094010020780700205004002013B5144BBF
:103A18000288DB8B9A4204461DD1837803F0F003B9
:103A2800102B01D0202B18D1A379A52B15D84FF630
:103A3800FF730DF1060059222146ADF80630FDF757
:103A480089FBB4F85900BDF80630C01A18BF012028
:103A5800800002B010BD0120FBE70220F9E700BF9B
:103A6800940100200A4A38B5138801339BB2502BC1
:103A780004460D4601D8138038BD0023054913803C
:103A8800FDF718FD29462046FDF714FDF4E700BFB1
:103A980020050020E0AB00082DE9F84F1546044644
:103AA8000F467749FDF706FD29462046FDF702FD3A
:103AB800744B0022012F1A804FF0904610D1022338
:103AC800B362B76146F2A810FDF7C6FFB76246F2C7
:103AD800A810FDF7C1FF29462046FFF7C3FFF0E70E
:103AE800BB1E01220C2B00F2BE80DFE803F0374A30
:103AF8005E1F07BCBCBC7171717171004FF09046BC
:103B08004FF001080227C6F8188046F2A810B762DD
:103B1800FDF7A2FFC6F8288046F2A810B761FDF7A6
:103B28009BFF29462046FFF79DFFEBE74FF09046A5
:103B38004FF001080227C6F8188046F2A810B761AE
:103B4800FDF78AFFC6F8288046F2A810B762FDF78D
:103B580083FF29462046FFF785FFEBE7B26202277D
:103B68004FF09046B76146F2A810FDF775FFB762AF
:103B780046F2A810FDF770FF29462046FFF772FFAE
:103B8800F0E70223B36101274FF09046B76146F290
:103B9800A810FDF761FFB76246F2A810FDF75CFFB9
:103BA80029462046FFF75EFFF0E7B26102274FF093
:103BB8009046B76146F2A810FDF74EFFB76246F28D
:103BC800A810FDF749FF29462046FFF74BFFF0E70D
:103BD800A7F1090A5FFA8AFA00264FF0010956454B
:103BE8003EBF4FF0904302229A614FF004084FF015
:103BF800904B46F2A810CBF81890FDF72DFF46F22F
:103C0800A810CBF82890FDF727FF08F1FF382946C0
:103C18002046FFF727FF18F0FF08EAD10223CBF868
:103C280028304FF004084FF0904B46F2A810CBF81C
:103C38001890FDF711FF46F2A810CBF82890FDF771
:103C48000BFF08F1FF3829462046FFF70BFF18F055
:103C5800FF08EAD10136A7F10803F6B2DBB2B34296
:103C680038BF0026BBE70223B261B3614CF2503083
:103C7800FDF7F2FE29462046FFF7F4FEF6E700BFFF
:103C8800E0AB00082005002010B50446084694F96A
:103C980001308B4201D1237823B901232370FDF72A
:103CA8007EFE607010BD00000A4608B50146014856
:103CB800FFF7F2FE040000200023037083704370B6
:103CC80003714371C370704703780022022B42715D
:103CD80004D0032B09D0012B16D0FEE70123037172
:103CE800437183784370C370704783784278991A18
:103CF800A3EB020218BF012112F0060F14BF012224
:103D0800002201714271EDE70271704702788170FB
:103D1800002A0CBF022203220270FFF7D5BF000061
:103D2800F0B50446214887B00D461146FFF7EEFF6F
:103D380003799BB10A2D13D120686168228901ABF0
:103D480003C31A80019A1A4B9A4225D1BDF80C6018
:103D5800082101A8FDF788FA86421DD107B0F0BDF9
:103D6800122D17D101AA234604F1100C1746186822
:103D78005968164603C6083363453246F7D11B888F
:103D88003380019A0B4B9A4206D1BDF8146010217A
:103D98003846DFE7002DE1D02A4607482146FEF7DE
:103DA80018F9064A13682B441360D7E70405002066
:103DB80053524C4D5041495208000020BC07002086
:103DC800074B282202FB003083681A78542A05D151
:103DD8005878A0F17803584258417047002070473E
:103DE8009CB9000808B50146FFF7EAFF98BB2823ED
:103DF8005943194B194A5B58934223D0511C8B42A3
:103E080020D0911C8B421DD002F10A018B4219D09F
:103E1800D11C8B4216D0511D8B4213D0911D8B4261
:103E280010D002F108018B420CD00B32934209D01A
:103E38000132934206D0911D8B4202F1120203D344
:103E4800934203D2012006E0934204D304488342FC
:103E58002CBF0020012008BD9CB9000818020020D2
:103E68003A020020074B282202FB003083681A78A8
:103E7800522A05D15878A0F1780358425841704722
:103E8800002070479CB90008074B282202FB00302D
:103E980083681A78542A04D15878783818BF0120D2
:103EA80070470120704700BF9CB9000828230B4ABF
:103EB800434310B5D1580446FFF7D4FF48B920460C
:103EC800FFF77EFF064B1B7828B103EB830301EB5A
:103ED8008301084610BD01EB0311FAE79CB90008FD
:103EE800940100202B2838B505461AD80E4B2822F5
:103EF80002FB00334CB21B79022B0DD0FE2B10D1E4
:103F0800FFF7D4FF0378E4B2A3420AD0047028462E
:103F1800BDE83840FFF7B8BFFFF7C8FF90F9003099
:103F2800F2E7002038BD00BF9CB900082B2838B53F
:103F380004460D4619D80E4B282202FB00331B7984
:103F4800FF2B12D1FFF7B2FF06222946FCF789FFA3
:103F580058B92046FFF7AAFF29460622FCF76EFF4C
:103F68002046BDE83840FFF78FBF002038BD00BFAE
:103F78009CB900082DE9F043074615462820394A20
:103F880041435018012B046A87B025D15258364B4B
:103F98009A4235D0A3F1CE018A4233D03349F23B5D
:103FA8009A4208BF0C46FF238DF800304FF00008F6
:103FB80001262046FCF716F95FFA88F9484529D802
:103FC80006F118036B44AE4203F8188C30D8002071
:103FD800387007B0BDE8F083022BE4D15258224B69
:103FE8009A4211D0591C8A4210D0A3F1CE018A42BC
:103FF8000ED0A3F1F2018A420AD01D49EC3BCFE76B
:104008001C4CD0E7194CCEE71B4CCCE71B4CCAE73D
:104018001B4CC8E714F809302C2B06D106F11803FD
:104028006B44013603F8188CF6B208F10108C0E7B2
:1040380005F118030DEB0305002315F8182C15F9E5
:10404800175C0132D2B29918C9B2A94207EB030032
:1040580003DB002303700120BBE7615C01700133BF
:10406800DBB2F0E79CB9000809030020C1AA0008E8
:10407800F5AA000812AB000897AB000875AB00085A
:104088004BAB0008054B282202FB0030436A0BB1FA
:10409800188870474FF6FF70704700BF9CB900083A
:1040A80038B50B4B282202FB0030056A2846FCF77E
:1040B80099F800221146D4B24B1CA042DBB201D8B9
:1040C800184638BD2C5D01322C2C08BF1946F2E782
:1040D8009CB900080F4B282202FB003310B51B794E
:1040E800FE2B014614D1FFF7CDFF04460846FFF723
:1040F800D7FF00221346D1B2884201D8184610BD16
:1041080044FA02F1C90744BF0133DBB20132F2E7D6
:10411800FF23F3E79CB900082DE9F04F4FF0000AA0
:104128001D4E93B004460F46D146D6F808805FFA74
:104138008AF54FF0000B0DE018F80300019206F025
:104148005FFBC3B2019A202B08BF5F2302F8403CF3
:104158000BF1010B5FFA8BF340460193FCF742F831
:10416800019B03F1480298426A44E5D802F8409C52
:10417800394602A8FCF72CF848B10AF1010ABAF14D
:104188002C0F06F12806D0D10025284600E0012092
:10419800257013B0BDE8F08F9CB9000837B51E4DE7
:1041A8001346282202FB015504462A79FE2A18D014
:1041B800FF2A24D0022A2BD10846FFF777FE214692
:1041C80090F9000005F0ABFE2D692B783BB113493F
:1041D800204606F0F9FA2946204606F0F5FA0120AD
:1041E80018E0084601930091FFF760FE019B0278F2
:1041F8000099204603B0BDE83040FFF7BBBE084633
:10420800FFF754FE062201462046FCF717FEE6E7B4
:104218000020207003B030BD9CB90008D7AC00085E
:10422800F8B5194B1646282202FB063300241A79E2
:104238000470022A07460D4603D0FE2A13D02046F2
:10424800F8BD93F918209142F9DB93F91C30994293
:10425800F5DC4FF0000165F307013046FFF742FE39
:1042680001243870EBE70029E9DB3046FFF718FF37
:10427800A842E4DD3046FFF705FF40FA05F313F0E6
:104288000103E6D11C46DAE79CB900082DE9F8439A
:1042980000230370124B1746282202FB07330646F9
:1042A8001B79FF2B0C4603D000252846BDE8F88370
:1042B8000846FBF797FF0628F6D104F1FF3804F10A
:1042C800050918F8010FFCF741FC05460028EBD05A
:1042D800C845F6D121463846FFF728FE3070E4E796
:1042E8009CB90008F8B5104E4FF0280C0CFB02667C
:1042F800002736790770FE2E04460B46154603D074
:10430800FF2E0BD0022E0DD1184606F0B6FA2A461B
:1043180001462046BDE8F840FFF782BFBDE8F840F7
:10432800FFF7B4BF3846F8BD9CB9000810B504467D
:104338000846B2B9FCF760FC042812D8DFE800F0A0
:1043480003090B0D0F000849204606F035FA012035
:1043580010BD0649F8E70649F6E70649F4E70649B5
:10436800F2E70020F4E700BFC4AB0008C9AB0008BF
:10437800CEAB0008D3AB0008D9AB000810B5044693
:104388000068FDF797F802492068FDF793F810BD1B
:10439800DFAB00080B1E18BF0123122A14D91D2AEF
:1043A80014D9312A8CBF0822052203710023016029
:1043B80080F885304371C0F8883080F88C3080F8F8
:1043C8008D20A0F88E3070470122EEE70322ECE73B
:1043D80090F88530642B08D8C2180133DBB25171CC
:1043E80080F88530184400234371704708B50530BC
:1043F800FBF7EEFEB0FA80F0400908BD2DE9F04168
:1044080092B00646084601911546FBF7EBFE06F109
:10441800050804464046FBF7E5FEE4B2631CC7B254
:10442800BB42019903DB002012B0BDE8F0812246AF
:10443800404606F0FDF90028F5D1221D2346164412
:10444800BB4202461BD300F148036B44002403F827
:10445800404C0028E7D09DF808303D2BE3D13023AD
:1044680002A88DF80830FBF7BDFE2346DAB2904269
:1044780012D802A806F001FA28600120D4E716F83D
:10448800011F202905D048326A440130C0B202F821
:10449800401C0133DBB2D3E748326A44013312F8D7
:1044A800402C303A092AE1D9BDE700000D4B1B78B2
:1044B80010B5044673B10C4B93F8742052B1DB6FFE
:1044C800B3F5215F07D20949FFF758FF084920468D
:1044D800FFF754FF10BDFDD00649FFF74FFF06490F
:1044E800F5E700BF48040020AC030020E2AB000859
:1044F80018AC00084EAC000884AC000810B504469F
:10450800FFF7D4FF20680749FCF7E3FF064B206854
:1045180019783031C9B2FCF7ADFF04492046FFF7DE
:104528002DFF10BDBAAC000894010020C0AA0008F5
:104538002DE9F0474379702B90B080460F46164618
:1045480071D18379202B6ED1C07906F009F9002842
:104558005CD000254FF0020A2C4608F105094846B0
:10456800FBF740FE824522D305F140030DEB03051E
:10457800002305F8403CC4B3E8461D4618F8010B73
:1045880006F03EF978550135EBB2A342F6D3002583
:104598003D550134E4B26846FBF724FE6719FFB2C3
:1045A800874206EB050334D300221A702DE008EB8E
:1045B8000A035B793D2B0ED0202B07D005F1400173
:1045C8006A1C0DEB010505F8403CD5B20AF1010360
:1045D8005FFA83FAC3E72C46F0E705F140036B4422
:1045E80013F8400C06F00CF978556846FBF7FAFD0D
:1045F800E5B2A84207EB050304F10104EDD8002257
:104608000A491A70304606F0D7F8012010B0BDE804
:10461800F08707F140020DEB0207013517F8402C2F
:104628001A70EDB2B7E70020F0E700BFC4AC00088D
:104638002DE9FF472C4E282303FB016604463379F6
:10464800FE2B0D4620D0FF2B4BD0022B2DD196F9F7
:10465800185026490068FCF73CFF2846694605F0D3
:104668005EFC69462046FFF789FE96F91C502049F2
:104678002068FCF72EFF6946284605F050FC69467D
:104688002046FFF77BFE10E00846FFF7FBFCDFF84B
:104698006890DFF868A080460027FEB20123324602
:1046A80029466846FFF766FC10B904B0BDE8F087F4
:1046B800BBB248FA03F3DB0711D520684946FCF77B
:1046C80008FF06F130012068C9B2FCF7D3FE206864
:1046D8005146FCF7FEFE69462046FFF74FFE0137BC
:1046E800DBE70449CDE700BF9CB90008C6AC000869
:1046F800CEAC0008DDAC0008D6AC0008D9AC000888
:10470800F0B504468BB008460D46FFF7E3FC254F8D
:10471800254906462068FCF7DCFE282303FB0577BD
:104728002068B968FCF7D5FE20492068FCF7D1FE5F
:104738002EB91F492046FFF721FE0BB0F0BD01221C
:10474800294602A8FFF72AFD206802A9FCF7C1FE46
:104758003B79FE2B03D0FF2B1AD01649EAE72846EF
:10476800FFF7A4FB057814492068FCF7B2FE05F1B1
:1047780030012068C9B2FCF77DFE10492068FCF7BB
:10478800A8FE012EE9D10E492068FCF7A2FEE4E755
:104798000C4B02A95A786846FFF7C8FD0028DCD000
:1047A8006946F1E79CB90008D6AC0008D9AC000806
:1047B800ECAC0008C0AA0008FCAC0008EAAC000891
:1047C800FFAC000894010020F8B590F88E3004463C
:1047D80063B990F88F30012B01D9032B06D1234BF5
:1047E8001B781BB922492046FFF7C8FD1F4F00263A
:1047F80094F88E502B2D03D9002384F88C3026E0B2
:104808006B1C84F88E302846FFF7ECFA0028EFD1AD
:1048180094F88F30012B09D12846FFF7D1FA0028E8
:10482800E6D12846FFF71EFB38B1E1E7022B0FD18E
:104838002846FFF7C5FA0028DAD029462046FFF7B0
:104848005FFF013694F88D30F6B2B342D0D2F8BD8E
:10485800032B08D12846FFF705FB0028C8D03B7872
:10486800002BEAD1DDE7002BF9D0E6E74804002069
:104878000EAD000838B58F4B1A6890F88C30012BB4
:10488800044640F01581D0F88830D31AB3F5FA7F82
:10489800C0F00E81884DC0F888202846FCF738F90A
:1048A80005F072FB01462068FCF713FE8349206877
:1048B800FCF70FFE05F12800FCF71BFC05F064FB74
:1048C80001462068FCF705FE7D492068FCF701FEDB
:1048D80095F8A90005F058FB01462068FCF7F9FD9A
:1048E80078492068FCF7F5FD95F9A00005F056FB1E
:1048F80001462068FCF7EDFD73492068FCF7E9FDE7
:1049080095F9A60005F04AFB01462068FCF7E1FD91
:104918006C492068FCF7DDFD95F9A20005F03EFB27
:1049280001462068FCF7D5FD68492068FCF7D1FDF1
:1049380005F16400FCF7DFFB80B205F039FB0146A6
:104948002068FCF7C6FD5F492068FCF7C2FD05F149
:104958007800FCF7D0FB80B205F02AFB01462068FE
:10496800FCF7B7FD5A492068FCF7B3FD594B5A4A82
:1049780019785A4B206800290CBF11461946FCF7D4
:10498800A8FD57492068FCF7A4FD564B564A1978EC
:10499800564B2068002914BF11461946FCF799FDAB
:1049A80053492068FCF795FD524B186805F00AFB3F
:1049B80001462068FCF78DFD4F492068FCF789FD0A
:1049C8004E4B186805F0FEFA01462068FCF781FD99
:1049D8004B492068FCF77DFD4A4B186805F0F2FA50
:1049E80001462068FCF775FD47492068FCF771FD12
:1049F800464B186805F0E6FA01462068FCF769FDA1
:104A080043492068FCF765FD424B186805F0DAFA5F
:104A180001462068FCF75DFD3F492068FCF759FD19
:104A28003E4B186805F0CEFA01462068FCF751FDA8
:104A38003B492068FCF74DFD3A4B186805F0C2FA6F
:104A480001462068FCF745FD37492068FCF741FD21
:104A5800364B188805F0C8FA01462068FCF739FD7E
:104A680033492068FCF735FD324B187805F0B4FA65
:104A780001462068FCF72DFD2F492068FCF729FD29
:104A88002E4B188805F0B0FA01462068FCF721FD86
:104A98002B492068FCF71DFD2A4B188805F088FA79
:104AA80001462068FCF715FD27492046FFF766FCFC
:104AB80038BD00BF34180020BC0600202FAD000808
:104AC80031AD000834AD000832AD000837AD00083C
:104AD8003AAD0008A60700202BAD00082DAD000850
:104AE80042AD0008A5070020A4B8000891AA000854
:104AF80049AD0008C00700204FAD0008AC070020F2
:104B080055AD0008C40700205DAD0008B0070020BF
:104B180065AD0008A80700206BAD0008B8070020A5
:104B280071AD0008BC07002078AD0008A20700207E
:104B38007EAD0008A407002083AD0008A007002070
:104B480088AD0008B40700208EAD000830B50446D3
:104B580095B0FFF7ABFC1C492068FCF7BAFC1B4971
:104B68008B785BB1023108A805F026FE1849206849
:104B7800FCF7AFFC206808A9FCF7ABFC15492046F8
:104B8800FFF7FCFB14492068FCF7A3FC134B1B78C8
:104B9800C3B1134D95F8743093B1206805F18001C5
:104BA800FCF797FC0A492068FCF793FCA96F684654
:104BB800FCF7E6F869462046FFF7E0FB15B030BD84
:104BC8000849F8E70849F6E790AD00080406002010
:104BD80034AD0008C0AA0008AEAD000848040020A3
:104BE800AC030020B5AD000814AD00082DE9F04372
:104BF800324EDFF8D880DFF8D89091B0044600270D
:104C080094F88D20FBB29A4209D994F88E50F37D1E
:104C1800AB4207F1010705D8002384F88C3011B0A6
:104C2800BDE8F083284605F0AFF901462068FCF797
:104C380050FC41462068FCF74CFC73190E35187E71
:104C480005F0A2F901462068FCF743FC49462068B4
:104C5800FCF73FFC56F8250005F0B4F9014620683A
:104C6800FCF737FC16492068FCF733FC154908A8FF
:104C780005F0A2FD06EB850393ED000ADFED127A3D
:104C8800B8EE400A20EE270A05F044FDFCEEC07A93
:104C9800694617EE900A05F00CF96846FBF7C6FF5F
:104CA80020686946FCF715FC08A92046FFF766FB53
:104CB80094F88E30013384F88E30A1E72405002063
:104CC800DBAD0008E1AD000800007A3ACAAD000883
:104CD800D1AD00082DE9F041254E264FDFF8CC80F4
:104CE8000446002594F88D20EBB29A423ED994F8F8
:104CF8008E30102B37D8DFE803F00913181A1C1E62
:104D080020222426282A2C2E303234002046FFF771
:104D1800CDFB94F88E30013384F88E300135E1E70D
:104D280015492046FFF72AFBF3E71449F9E7144928
:104D3800F7E71449F5E71449F3E71449F1E714498B
:104D4800EFE71449EDE71449EBE71449E9E714499B
:104D5800E7E71449E5E71449E3E74146E1E739465F
:104D6800DFE73146DDE7002384F88C30BDE8F081C9
:104D780051B000081AB00008E6AD000806AE0008F9
:104D880030AE000855AE00087DAE0008A1AE0008A0
:104D9800C5AE0008EEAE000817AF00085BAF00080C
:104DA8007DAF00089FAF0008BEAF0008EDAF000858
:104DB8002DE9F043037993B00446C3B190F88C30E1
:104DC800013B032B19D8DFE803F00252575C006857
:104DD80003685B69984768B1206803689B699847CE
:104DE8000023AB4984F88C302046FFF7C7FA13B08C
:104DF800BDE8F0832046FFF73DFDA64B1E6894F8FA
:104E080085308BB1D4F88830F31AB3F5FA6F0BD923
:104E1800A1492046FFF7B2FAA0492046FFF7AEFAAB
:104E2800002384F8853063719B4FDFF8D882DFF860
:104E3800D892206803685B6998470028D7D0206813
:104E480003689B6998470A280546C4F888601DD0FE
:104E58000D281BD02C2819D03B2817D001462068D4
:104E6800FCF708FB29462046FFF7B2FAE1E713B042
:104E7800BDE8F043FFF72EBF13B0BDE8F043FFF7DE
:104E8800A3BC13B0BDE8F043FFF7B0BE39462046D7
:104E9800FFF774FA41462046FFF7A8FA50B10223FB
:104EA80084F88C30002384F88E30002384F8853011
:104EB8006371BEE749462046FFF798FA0028EED10D
:104EC80077492046FFF792FA0028E8D1754920462D
:104ED800FFF78CFA054618B12046FFF737FEE4E7DE
:104EE80071492046FFF782FA40B12046FFF706FBDA
:104EF800032384F88C30A4F88E50D6E76B492046FB
:104F0800FFF774FA50B12046FFF7F8FA032384F844
:104F18008C304FF48073A4F88E30C6E7644920467D
:104F2800FFF764FA40B12046FFF7E8FA032384F854
:104F38008C304FF40073EEE75E492046FFF756FACF
:104F480040B12046FFF7DAFA032384F88C304FF497
:104F58004073E0E70AAA02A92046FFF7E9FA002809
:104F680048D002A90DF10200FFF7D6F820B952493E
:104F78002046FFF703FA98E79DF802502846FEF707
:104F880031FF08B14D49F3E74D4B1B782BB9284643
:104F9800FEF768FF08B14B49EAE79DF828303F2B38
:104FA8000BD12046FFF7AAFA29462046FFF7A8FBAF
:104FB80029462046FFF73CFB77E70BB94249D7E77C
:104FC8002A460AA90DF10300FFF78CF908B93F49F1
:104FD800CEE72046FFF792FA29462046FFF790FBD6
:104FE8009DF80330002B3FF460AF05213848FCF7EB
:104FF8009FF85AE737492046FFF7F8F988B134484F
:105008000621FCF795F82046FFF778FA2C4B1B7819
:105018002BB92C492046FFF7B1F92F49A8E72F49AA
:10502800A6E72F492046FFF7E1F928B101212848D2
:10503800FCF77EF82B499BE72B492046FFF7D6F96A
:1050480088B123480721FCF773F82046FFF756FA82
:105058001B4B1B782BB91B492046FFF78FF92349B7
:1050680086E7234984E7234901AA2046FFF7C6F9C2
:1050780000285CD0019D092D01D91F4978E72046F9
:10508800FFF73CFA1D4B1B789D423FD11C496FE747
:1050980093B0000834180020ADB00008AFB0000885
:1050A800C4AC00082FB60008BEB00008C1B00008A4
:1050B800C6B00008CCB00008D2B00008EEB00008B6
:1050C800480400200EAD00081CB1000834B10008E7
:1050D8009407002047B100084EB1000865B10008E8
:1050E80079B100087EB1000895B100089CB10008AC
:1050F800B5B10008CBB10008D7B100089401002071
:10510800FBB1000899B70008B9B000082A461D4845
:105118000A21FCF70FF81C492068FCF7DAF905F1B9
:105128003001C9B22068FCF7A5F9184920E71849E9
:105138002046FFF75BF9054640B10123154984F87D
:105148008C302046FFF71AF9134911E71349204616
:10515800FFF74CF928B1042384F88C3084F88E507A
:10516800A3E60F492046FFF741F908B103213DE7BF
:1051780094F885100B4A0C4B00290CBF11461946B0
:10518800F6E600BF9407002010B20008C0AA000885
:1051980039B2000826B200083FB200085CB2000825
:1051A80066B2000879B0000885B0000808B5074B5A
:1051B80007484FF400425A614FF6FF7105F08CF929
:1051C800044B1A88104380B2188008BD00040140BF
:1051D8007807002044040020014B1878704700BF6E
:1051E800480400202DE9F04FDFF8F8A29AF80030C3
:1051F800012BC1B000F20A820BB9FCF7FFFA914CFF
:10520800FCF70EFCFDF7C4F9FCF798FBFCF784FBF0
:1052180023781BB904F01AFB012323708A4D8B4EA7
:10522800DFF8C482FDF70CF8FDF77CF9FCF7A8FB62
:10523800874B002480225A70C5E904441C70AC6076
:10524800FF232B73FCF7EAFD824B1C70FCF7EAFA8C
:10525800814B82484FF400425A614027FCF728FBF3
:10526800FCF7FAFBB76241F28830FCF7F5FBB7614F
:105278004CF25030FCF7F0FB2846FCF701FB2146C6
:10528800284604F0D9FF4FF47A70FCF7E5FBFDF7E8
:105298007FFE2BA8FCF7A8FADDE92B2353402D9AB3
:1052A8006F4F704E704D53401BBA3B606F4B1C6084
:1052B8006F4B1C606F4B1C606F4B1C606F4B1C600E
:1052C8006F4B1C606F4B1C606F4B1C806F4B1C70CE
:1052D8006F4B1C806F4B1C8033788BB395F8009014
:1052E8006D4B09F1110418682B902401A01C9A88B1
:1052F8009B79ADF8B0202BA9404444448DF8B230D6
:1053080005F05AFA0123637208EB09130222A3F885
:105318001A214846FDF7F6F92878FDF7D7FC5F4AC9
:105328005F4913685F4803F52F3303F548730B6033
:105338003B681168126859405A405B4B01705340F2
:105348005A4A696C13605A4B32785A4800241C60D8
:10535800594B88F82D401C70584B1C70584B1A70CC
:10536800FCF7CCFE5348FBF7DDFF564B56489C70C4
:105378001C80FBF7C2FEB5F8482054495448FFF793
:1053880009F8314805F0D8F8013880B24FF6FD73B6
:10539800984203D94F490120FEF786FC4E492A4816
:1053A800FDF7AAFE7D20FCF757FBFCF7A9FA95F854
:1053B80020B0BBF1200F00D9FEE795F828C0AB8DCF
:1053C800696A95F82920039395F82A30434DBCF172
:1053D800050F85F806C000D9FEE741484FEA0C18CA
:1053E80000EB0C1E50F8080000B9FEE7A8609EF814
:1053F80004009EF80C800290E871DEF8080028612D
:1054080085F80C8085F8D9C0AC82A146A6460398D9
:105418002041C00707D5012000FA04F94EEA09091E
:105428001FFA89FE81460134062CF0D12B4CB9F1C4
:10543800000F01D0A4F814E0B4F814E0BEF1000F96
:1054480054D1FEE7700400207807002000040048CB
:10545800220500200C00002000040140E093040015
:105468000C0500204604002094010020C0070020FD
:10547800AC070020C4070020B0070020A8070020C0
:10548800B8070020BC070020A2070020A4070020BE
:10549800A0070020440400208CAA0008341800202B
:1054A80058040020470400205A5AA5A55404002097
:1054B800640400200800002060040020500400203C
:1054C800A507002004060020940700200000002003
:1054D8007404002071B200089801002024050020FF
:1054E80028B900085E060020F00100200298A0EB11
:1054F8000800C0B2584528BF5846BCF1050FE075F2
:1055080000F0BE80BCF1010F00F2C18002F1FF3C47
:105518005FFA8CFC00F0A980BCF1020F00F2A080B9
:1055280003F1FF3CBCF1030F00F294800C2803D96F
:105538004FF00C0C84F817C094F817C0844500D9B4
:10554800E0759E48FBF716FD0023A96B9C4885F87B
:10555800D830AB7504F095FE9A4C9B4B94F84010EC
:105568009A48FF221A705A70B4F84830B4F84A20A2
:10557800FBF78CFA964B12224FF48061013A12F035
:10558800FF0223F8021BF9D192489349FEF794FBD6
:10559800924B02701A70924B1A70924B1A60237FCA
:1055A80014330B80904B19683B6859408F4B4B4024
:1055B8008F490B603378002B6DD01046FBF78CFEBB
:1055C8008C4D4FF42F70FBF76BFE00232B80AB70D4
:1055D8004FF0904301229A6207244CF25030013C6C
:1055E800FCF7C2F9FCF738FA14F0FF04F5D1337868
:1055F8003BB14FF0904202239361012393622C80C8
:10560800AB70FCF799FFFF238AF80030744E764C94
:10561800337853B1734A236811685B1A002B04DD91
:10562800002313606B4A33701370724B30789A788A
:105638002368002A65D07822B3FBF2F313F0010F38
:105648004FF001014FF002024FF0904328D09961CA
:105658009A6227E0122884BF1223E37500236BE7C0
:10566800042B88BF002300226BE7BCF1020F04D88B
:105678000C2803D90C23E37500E00022002360E71F
:10568800531E022BF9D80828F8D90823F3E74B480A
:10569800FBF70AFC58E740F6B830FEF731F88DE71B
:1056A80099629A61FCF752FF002852D04448524D43
:1056B800FDF71CFE01465148FEF7E6FA2B7833B990
:1056C8003378002B35D04FF44870FBF7E9FDFCF731
:1056D8002DF94B4B00283BD01A680AB922681A608A
:1056E80022681968521AB2F5FA6F32D34549012275
:1056F8000A7000212A7019608AF8002041B0BDE8BC
:10570800F08FFA220221B3FBF2F34FF0904203F03C
:10571800010338B123B191614FF09043012297E71B
:105728009162F9E7916201210BB19161BAE7916247
:10573800B8E7354F23683A689B1A002BC7DB282047
:10574800FDF7DEFFFBF7C8FD236878333B60BEE753
:1057580018602E48FFF72CFB2D48FBF7D3FC0138C7
:10576800062807D8DFE800F02106061F1F041D00E1
:10577800FDF7BCFB204A1378002B00F03981254B3C
:1057880021681B68CB1A002B48DD002313701D4AC3
:105798001370214B01221A701F4B1B78002BADD0C0
:1057A80022E1FDF7E9FB012304E0134A012313700A
:1057B800144A13708AF80030A0E700BF24050020BF
:1057C80078070020940100205F060020BC06002016
:1057D8003A06002004050020B40700201005002028
:1057E800480400205C040020341800203C3CC3C35B
:1057F8006804002036060020460400202205002008
:1058080014050020A50700206C0400207404002063
:10581800940700205804002050040020AB48036877
:10582800CB1A002BB8DBAA4EAA4D3768AA4ADFF874
:10583800EC82B5F8483002FB07870B4407F00701F4
:1058480002FB078737600B4407F00707A34E036086
:1058580007F10801A24800233380FDF788FD07F10E
:105868000B00FCF759F900286AD1DFF8B4E29D4F24
:105878009EF80030D7F800C09B49E3B92268DFF8EA
:1058880058B2029182EA0C0206234FF028090BFB5A
:105898000282964CB2FBF9F009FB1020013B205C18
:1058A800029C04F8010B13F0FF030294EFD18B71F3
:1058B80001238EF800308E4BDFF868821B9301239A
:1058C8008DF8703098F800308DF871300B68CDF88D
:1058D800763000248B88CDF872C010211BA8ADF853
:1058E8007A30ADF87C40FBF7BFFC824BADF87C000A
:1058F80019788DF834404A1C0BA84FF012091A7019
:10590800CDE90B44FBF726FD7B4A7C48CDF8009097
:105918001BAB0BA9FDF772FE2B7F714877493480CA
:1059280014335B22FDF70AFD287F1630FCF7A8F830
:1059380088B9734B01221A7000225A711A712BE729
:1059480067486E495B22FDF78FFC6C48FDF7E8FF5E
:1059580000288AD020E7297F614834801431FDF778
:1059680006FD287F1630FCF7D7F80028E1D0654CF3
:105978005B4821465B22FDF777FC2046FEF746F898
:10598800014630B12046FDF7CBFF00287FF404AF75
:10599800CFE74A462BA804F0A5FFA1792BAA49080E
:1059A800E01DFBF7EDFC00283FF4F6AE9DF8B030A3
:1059B800022B7FF4F1AEDDF8B2203B689A427FF407
:1059C800EBAE9DF8B12098F800309A427FF4E4AE2F
:1059D800454906220DF1B60004F05AFF00287FF46D
:1059E800DBAE4148FDF78AFA474B00221A70DAE627
:1059F800464A1778002F40F0F780454D22682B68FB
:105A0800D31A002BFFF67AAEDFF8C880DFF8E490EF
:105A1800B8F84830DFF8C4A0134440210BA82B6025
:105A2800FCF724FB99F800108DF81C704B1C0446F9
:105A380005A889F80030CDE90577FBF78BFC2E4ADD
:105A48002E4800940BAB05A9FDF7D8FD98F81C303B
:105A580023482A49AAF8007014335B22FDF76EFC2C
:105A680098F81C001630FCF70BF828B9244B0122D3
:105A78001A705871187141E698F81C101848AAF85D
:105A880000701431FDF773FC98F81C001630FCF711
:105A980043F8002848D11A4B01221A70587118711E
:105AA8003378002B7FF42AAE1A48FBF73BFC1A4ADE
:105AB80009481168194B00FB013313602A6803F089
:105AC8000F0302321A442A6018E600BF640400205B
